:020000022000DC
:1030000000000120B5320200DD320200DF32020092
:10301000E1320200E3320200E5320200000000006B
:10302000000000000000000000000000E732020085
:10303000E932020000000000EB320200ED32020033
:10304000EF320200EF320200EF320200EF320200F4
:10305000EF320200EF320200EF320200EF320200E4
:10306000EF320200EF320200EF320200EF320200D4
:10307000EF320200EF320200EF320200EF320200C4
:10308000EF320200EF320200EF320200EF320200B4
:10309000EF320200EF32020015380200EF32020078
:1030A000EF320200EF320200EF320200EF32020094
:1030B000EF320200EF3202000000000000000000CA
:1030C000EF320200EF320200EF320200EF32020074
:1030D000EF320200EF320200EF3202000000000087
:1030E00000000000000000000000000000000000E0
:1030F00000000000000000000000000000000000D0
:1031000000000000000000000000000000000000BF
:1031100000000000000000000000000000000000AF
:10312000000000000000000000000000000000009F
:10313000000000000000000000000000000000008F
:10314000000000000000000000000000000000007F
:10315000000000000000000000000000000000006F
:10316000000000000000000000000000000000005F
:10317000000000000000000000000000000000004F
:10318000000000000000000000000000000000003F
:10319000000000000000000000000000000000002F
:1031A000000000000000000000000000000000001F
:1031B000000000000000000000000000000000000F
:1031C00000000000000000000000000000000000FF
:1031D00000000000000000000000000000000000EF
:1031E00000000000000000000000000000000000DF
:1031F00000000000000000000000000000000000CF
:1032000010B5054C237833B9044B13B10448AFF320
:1032100000800123237010BDD45600200000000060
:103220004839020008B5034B1BB103490348AFF30B
:10323000008008BD00000000D85600204839020078
:10324000154B002B08BF134B9D46A3F5803A002178
:103250008B460F461348144A121A00F051FB0F4BCD
:10326000002B00D098470E4B002B00D09847002031
:10327000002104000D000D48002802D00C48AFF3D7
:10328000008000F019FB2000290000F0F3F900F0A5
:10329000FFFA00BF0000080000000120000000004D
:1032A00000000000D4560020F0560020000000006E
:1032B000000000000649074A074B9B1A03DD043B48
:1032C000C858D050FBDC00F013F8FFF7B9FF00003E
:1032D0005C39020068560020D4560020FEE7FEE765
:1032E000FEE7FEE7FEE7FEE7FEE7FEE7FEE7FEE7B6
:1032F00030B4AF4B1B78062B1BD0AE4AD2F88830C7
:1033000043F47003C2F88830BFF34F8FBFF36F8F61
:103310004FF01023D3F80022002AC0F27381D3F8B3
:103320000432002BC0F26E81A34BA44A1A6030BC59
:103330007047A34B1B681D07DFD1A24B1B6803F02E
:10334000F002302A00F08E8003F0E003402B00F002
:1033500089809C4B1B6803F0F003302B00F0FB804E
:10336000984B1B6803F0F002302A46D003F0E003CC
:10337000402B42D0934B1B6803F0F003302B00F03E
:10338000F880904B1B6803F0F002302A56D003F00F
:10339000E003402B52D08B4B1B6803F0F003302B23
:1033A00000F0F780874B1B6803F0F003302B69D0E7
:1033B000844B1B6803F0F003502B7AD0814B1B68C1
:1033C00003F0F002302A28D003F0E003402B24D091
:1033D0007C4B1B6803F0F002302A03D003F0E003BB
:1033E000402B8AD14FF08043D3F80024D20744BF4A
:1033F0006FF00102C3F800247FE7734B6C4A1B682F
:1034000012787249C3F34233062A0B6048D16C4BE1
:103410001B6819077FF471AFACE76D4A644B126803
:103420001B786C4902F04F02062B0A607FF465AFEF
:10343000634B1B6819077FF460AFC9E74FF0804307
:103440000022C3F80C21C3F81021C3F83825584BCB
:103450001B78062B7FF451AF594B1B681B077FF479
:103460004CAF98E75C4B524A1B6812785B49C3F338
:103470000423062A0B60EAD1514B1B681C077FF41A
:103480003CAF66E7564C4A4A564912785648574B65
:103490000525256001250D6000243F210460196089
:1034A000062A7FF42AAF464B1B681C077FF425AF22
:1034B0007EE74FF080534E4AD3F80414C2F820152B
:1034C000D3F80814C2F82415D3F80C14C2F8281540
:1034D000D3F81014C2F82C15D3F81414C2F8301510
:1034E000D3F81814C2F83415D3F81C14C2F84015D8
:1034F000D3F82014C2F84415D3F82414C2F84815A0
:10350000D3F82814C2F84C15D3F82C14C2F850156F
:10351000D3F83014C2F85415D3F83414C2F8601537
:10352000D3F83814C2F86415D3F83C14C2F86815FF
:10353000D3F840141E48C2F86C15D3F8441403782D
:10354000C2F87015062B7FF4D8AE1D4B1B68180708
:103550007FF4D3AE32E7164B264A1B78264911601A
:10356000062B7FF4CAAE164B1B6818077FF4C5AE56
:10357000F6E622490E4BCA681B7822F08072062BB1
:10358000CA607FF4BAAE0E4B1B681A077FF4B5AE63
:10359000F7E6074B1A4A1B780321062B11607FF4CC
:1035A000ACAE074B1B681D077FF4A7AEFAE600BF61
:1035B000E00F00F000ED00E0685600200090D0031E
:1035C000E40F00F0E80F00F0440200103C0500405A
:1035D00058020010E40E0040240300104035014062
:1035E00010560040885600401856004014560040BF
:1035F00000C0004074C007400DF0ADBAF0ED00E02F
:10360000A0050040184B0122C3F80425D3F800247C
:10361000002AFBD04FF0102315221349C3F80022D3
:10362000D1F80034002BFBD04FF0102215210E4BA7
:10363000C2F80412D3F80024002AFBD000220A4961
:10364000C3F80425D1F80034002BFBD0BFF34F8F13
:103650000649074BCA6802F4E0621343CB60BFF32C
:103660004F8F00BFFDE700BF00E0014000ED00E02C
:103670000400FA0530B44FF0A0420321434BC2F8D6
:1036800030171D68424C43484FF48051C2F808156A
:10369000034600BF00BF00BF00BF00BF00BF00BFA8
:1036A00000BFA5422FD000BF00BF00BF00BF00BFBA
:1036B00000BF00BF00BF00BF00BF00BF00BF00BF12
:1036C00000BF00BF00BF00BF00BF00BF00BF00BF02
:1036D00000BF00BF00BF00BF00BF00BF00BF00BFF2
:1036E00000BF00BF00BF00BF00BF00BF00BF00BFE2
:1036F00000BF00BF00BF00BF00BF00BF00BF00BFD2
:1037000000BF00BF00BF013BC3D1C2F80C15034688
:1037100000BF00BF00BF00BF00BF00BF00BF00BFB1
:10372000A5422FD000BF00BF00BF00BF00BF00BF39
:1037300000BF00BF00BF00BF00BF00BF00BF00BF91
:1037400000BF00BF00BF00BF00BF00BF00BF00BF81
:1037500000BF00BF00BF00BF00BF00BF00BF00BF71
:1037600000BF00BF00BF00BF00BF00BF00BF00BF61
:1037700000BF00BF00BF00BF00BF00BF00BF00BF51
:1037800000BF00BF013BC3D180E700BF68560020E7
:103790000024F40020A1070000B585B000230390A9
:1037A000194601AA44F20100ADF80430029300F07A
:1037B00003F805B05DF804FB084B1B68DB0700D578
:1037C000FFDEBFF34F8F0649064BCA6802F4E06282
:1037D0001343CB60BFF34F8F00BFFDE7F0ED00E078
:1037E00000ED00E00400FA0501600B6843604A68E0
:1037F000934204BF00234360704700BF436843B156
:10380000026891680B4443605268934204BF0023EE
:103810004360704700B583B068460849FFF7E4FF8E
:10382000019B43B1D3E9002090476846FFF7E6FFCC
:10383000019B002BF6D103B05DF804FB2C3902008C
:1038400048DF704710B5114C84B001A8FFF7F8FFAE
:10385000A8B9214602A8FFF7C7FF039B002BF4D0AD
:10386000D3E900210198904702A8FFF7C7FF039B07
:10387000002BF5D101A8FFF7E3FF0028E9D00528C8
:1038800001D0FFF789FF04B010BD00BF3839020036
:1038900008B5074B044613B10021AFF30080054B78
:1038A0001868836A03B19847204600F031F800BFDA
:1038B000000000004439020070B50D4E0D4CA41BF1
:1038C000A4100025A54209D10B4E0C4C00F022F8A3
:1038D000A41BA4100025A54205D170BD56F82530C3
:1038E00098470135EEE756F8253098470135F2E75D
:1038F000CC560020CC560020CC560020D0560020BC
:1039000002440346934200D1704703F8011BF9E7D4
:10391000FEE700BFF8B500BFF8BC08BC9E46704784
:10392000F8B500BFF8BC08BC9E4670474C39020091
:1039300054390200080000005439020054390200D2
:0C394000080000006C5600200000000091
:08394C004538020000000000F4
:08395400ECF8FF7F0100000008
:10395C000090D003000000000000000000000000F8
:10396C00000000000000000000000000000000004B
:10397C00000000000000000000000000000000003B
:10398C00000000000000000000000000000000002B
:10399C00000000000000000000000000000000001B
:1039AC00000000000000000000000000000000000B
:0C39BC0000000000253202000132020071
:04000003200032B5F2
:00000001FF
